:060000000A128A110C280F
:10000800FE00030EF0000A08F1000A128A11062FFA
:100018000A128A110F28FA01FB0183132030840089
:1000280051300A128A11F6260A128A11A030840069
:10003800E0300A128A11F6260A128A1183010A127E
:100048008A112A2D83120313E1006108DE005E087D
:10005800E0002008031D31283228332802296008CF
:10006800033E8400831300080A128A11D2260A125A
:100078008A1183120313DE005E08DF005F08210285
:10008800031847284828C9286008033E84008313BA
:1000980000080A128A11C2260A128A11003A0319A4
:1000A80056285728C928831203136008033E840082
:1000B8008313000822050319622863289628240858
:1000C800DE005E08BB003B30D1000030D2000030BB
:1000D8000A128A1103210A128A113B300A128A1164
:1000E800D6250A128A1107300A128A11A3240A1285
:1000F8008A11831203135D08DE005E08F8006108A8
:100108000A128A1174220A128A110B3083120313FD
:10011800D1008030D20000300A128A1103210A125D
:100128008A11FD282308DE005E08BB003B30D100A1
:100138000030D20000300A128A1103210A128A11F3
:100148003B300A128A11D6250A128A1107300A1280
:100158008A11A3240A128A11831203135D08DE0090
:100168005E08F80061080A128A1174220A128A11BC
:100178000B3083120313D1008030D20000300A12F2
:100188008A1103210A128A11FD28831203132008F9
:10019800DE005E08BB003B30D1000030D2000030EA
:1001A8000A128A1103210A128A1100300A128A11CE
:1001B800D6250A128A1107300A128A11A3240A12B4
:1001C8008A11831203135D08DE005E08F8006108D7
:1001D8000A128A1174220A128A110B30831203132D
:1001E800D1008030D20000300A128A1103210A128D
:1001F8008A110A128A112C260A128A1108008312FF
:100208000313D40007305406031D0B290C290D29AC
:100218006A2903300A128A115C260A128A110339E4
:10022800023E83120313D3005308FB00023054022A
:10023800031C1F2920295B290B300A128A115C260E
:100248000A128A1183120313D3005308FA005108C3
:10025800F3005208F4007B08D3005308F5000B3074
:100268000A128A1171240A128A117A088312031356
:10027800D3005308F3000B300A128A1144260A12DD
:100288008A11831203135208FF00510884000A12CE
:100298008A11B7250A128A11D3005308F3005408AB
:1002A8000A3E0A128A1144260A128A116A2951083A
:1002B800F3005208F4007B08D3005308F5005408F3
:1002C8000A3E0A128A1171240A128A11080083123E
:1002D8000313D30007305306031D732974298B2990
:1002E8007608031D782979297C29D101D201802932
:1002F8003F30D1000030D2005108F7007708F300F2
:1003080001300A128A1144260A128A11C3290130BF
:100318000A128A115C260A128A11F7007708FB0074
:100328007608031998299929A9290130F700831219
:100338000313530AA1290310F70DFF3E031D9F293C
:100348007708F8007808FB04B9290130F700831210
:100358000313530AB1290310F70DFF3E031DAF29FC
:100368007708FF3AF8007808FB057B08F70077085C
:10037800F30001300A128A1144260A128A11080071
:1003880083120313DB005B08D100D2015108F2008D
:100398005208F300E830F4000330F5000A128A111D
:1003A8004F250A128A11720883120313D3007308A7
:1003B800D4000030D41BFF30D500D6000A128A11B1
:1003C800ED260A128A11720883120313D3077308E1
:1003D8000318730FF029F129D40774080318740F50
:1003E800F629F729D50775080318750AD607560898
:1003F800DA005508D9005408D8005308D7000A1263
:100408008A11ED260A128A11831203135A087502FB
:10041800031D182A59087402031D182A5808730264
:10042800031D182A57087202031C1B2A1C2A032AB8
:100438000800F80007307806031D232A242A672AB3
:1004480076083F39F7007708F30011300A128A114D
:1004580044260A128A1176083F39F7007708F30014
:1004680012300A128A1144260A128A1176083F3974
:10047800F7007708F30013300A128A1144260A128B
:100488008A1176083F39F7007708F30014300A120A
:100498008A1144260A128A1176083F39F70077082C
:1004A800F30015300A128A1144260A128A117608B6
:1004B8003F39F7007708F30016300A128A114426EC
:1004C8000A128A11732A76083F39F7007708F30071
:1004D8007808113E0A128A1144260A128A11080065
:1004E80083120313DC0008118811A0300A128A1144
:1004F800E1260A128A11FB01932A7B08831203134F
:100508005C07F90079088400831300080A128A112D
:10051800E1260A128A110130F9007908FB077808E8
:100528007B02031C982A992A812A831203138815AF
:1005380008150F300A128A11C4210A128A1183126F
:10054800031308110A128A11A1260A128A11FB0044
:1005580030390319B02AB12AA62A7B08F90079088C
:10056800F30007300A128A1144260A128A11080079
:10057800F8001D300A128A115C260A128A11F60048
:100588007608FB007B157B08F6007608F3001D3023
:100598000A128A1144260A128A1107307806031DA6
:1005A800D62AD72AE22A3F30F6007608F3001C3014
:1005B8000A128A1144260A128A11022B1C300A12C6
:1005C8008A115C260A128A11F6007608FB000130AF
:1005D800F600780AF12A0310F60DFF3E031DEF2AF4
:1005E8007608F7007708FB047B08F6007608F30026
:1005F8001C300A128A1144260A128A1108000A12AB
:100608008A1196250A128A110B3083120313D1001E
:100618008030D20000300A128A1103210A128A118E
:1006280001300A128A1100240A128A1101300A12B2
:100638008A1101250A128A1107300A128A11BC226E
:100648000A128A1106300A128A11F5250A128A112D
:10065800F601F60A07300A128A116B210A128A116A
:100668000A128A112C260A128A11203083120313C7
:10067800DC005C08F60000300A128A111D220A12FA
:100688008A11080083120313D1000A128A11A126C5
:100698000A128A11F7007708FB007B08F700770831
:1006A800F30007300A128A1144260A128A118312AB
:1006B8000313881161300A128A11E1260A128A117D
:1006C80083120313D2017D2BFF300A128A11E1260F
:1006D8000A128A11F7008312031352085107F8000F
:1006E800780884007708831380000130F7007708C2
:1006F800D20776085202031C822B832B682B88159D
:10070800080083120313DC005C08DA005A08A00012
:100718005C080A128A11D2260A128A11831203135C
:10072800DA005A08A1002108013EDA005A08A2009E
:100738002208DA0001300310DA0DFF3E031D9F2B5B
:10074800210820055A04DB005B08A3002208DA0010
:1007580001300310DA0DFF3E031DAD2B21082005E3
:100768005A042204DB005B08A4003B30D6000030AA
:10077800D7000A128A1174250A128A1108008312F6
:100788000313E6006608E3006308E5006508033E16
:1007980084008313000820060319D32BD42BEA2BDB
:1007A8006208E3006308DD0066080A128A11262041
:1007B8000A128A11FF2B6208E3006308F500660835
:1007C8000A128A1113260A128A11FF2B650A84005D
:1007D8000008E300E4016408003A0319F42BFF2B36
:1007E8006308003A0319FF2B013A0319DF2B033A78
:1007F8000319FF2BFF2B0800F70006300A128A1195
:100808005C260A128A11F6007608FB007708031D99
:100818000E2C0F2C152CFB16F730F6007608FB056E
:100828002E2C7703031D192C1A2C232CDF30F600ED
:100838007608FB05F730F6007608FB052E2C02300B
:100848007706031D282C292C2E2CDF30F60076087D
:10085800FB05FB157B08F6007608F30006300A1244
:100868008A1144260A128A11080083120313D4003D
:100878007208D2007308D3005408F6007608D50031
:10088800622C5308FF00520884000A128A11B72507
:100898000A128A11F6007608D1000130D20703182F
:1008A800D30A0030D3075108F600550884007608AB
:1008B800831380000130F6007608D5070130F40272
:1008C8000030031CF503F502740A031D6F2C750A2A
:1008D800031D6F2C702C452C0800F800831203139D
:1008E8008811780820380A128A11E1260A128A111A
:1008F800F901992C7908F600F70176087307840046
:1009080077080318770A740783120313FF000A1283
:100918008A11B7250A128A110A128A11E1260A12C7
:100928008A110130F6007608F90775087902031C68
:100938009E2C9F2C7E2C8312031388150800F80028
:1009480007307806031DA92CAA2CB22CF30102301B
:100958000A128A1144260A128A11D32C02300A126A
:100968008A115C260A128A11F6007608FB0001300B
:10097800F600780AC12C0310F60DFF3E031DBF2CAC
:100988007608FF3AF7007708FB057B08F60076083B
:10099800F30002300A128A1144260A128A1108004A
:1009A800F52C0A128A1174260A128A11831203136B
:1009B800E7006708E8006808E7006708F600C03045
:1009C8000A128A1146230A128A118312031368082D
:1009D800E7006708E200C0300A128A11C3230A122E
:1009E8008A1150300A128A118B260A128A11003A8B
:1009F800031DFF2C002DD52C0800F70000300A122B
:100A08008A115C260A128A11F6007608FB00770321
:100A1800031D0F2D102D162DFB15FB30F600760843
:100A2800FB051F2D02307706031D1B2D1C2D1F2DC6
:100A3800FB157B151F2D7B08F6007608F3000030A8
:100A48000A128A1144260A128A1108000A128A1107
:100A580003230A128A1173300A128A11FE260A1217
:100A68008A11063083120313D6008030D7000A1289
:100A78008A1174250A128A1102300A128A118523F2
:100A88000A128A110A128A11D4240A128A11462DCE
:100A98000A128A110C28F601F701721C542D552DE3
:100AA8005B2D7408F6070318F70A7508F707013075
:100AB8000310F40DF50DFF3E031D5C2D01300310EE
:100AC800F30CF20CFF3E031D632D72087304031D23
:100AD8006E2D6F2D512D7708F3007608F20008006F
:100AE800831203135608F2005708F3000530F40088
:100AF8000030F5003B300A128A1139240A128A1193
:100B080083120313BB013B082004D800D9015808FD
:100B1800D1005908D20001300A128A1103210A12A1
:100B28008A1108008316031308118811831203130E
:100B3800081188150A300A128A11C4210A128A116A
:100B48000A128A11A1260A128A11F8007808FB00F5
:100B58007B08F8007808F30007300A128A11442647
:100B68000A128A110800FF1BC12D83137F188317EF
:100B78000008840A0319FF0A080005308A000408DF
:100B8800840A82070034F9343634CD34AC34E7347F
:100B98000034FC34B034E834F5345934EC34AD3432
:100BA800FC34843483120313D20003300A128A11EE
:100BB8005C260A128A110339023E83120313D100FC
:100BC8005108FB005208F3000030F4007B08D10004
:100BD8005108F50010300A128A1171240A128A117C
:100BE8000800F70006300A128A115C260A128A11D8
:100BF800F6007608FB00FB30F6007608FB05FD30B2
:100C0800F6007608FB057B087704F6007608F30003
:100C180006300A128A1144260A128A110800F900BD
:100C28007908F6007608F8007508F6007608F200EC
:100C38007808043E84008313000E0F39F700770804
:100C4800F30079080A128A110D270A128A1108007E
:100C580000300A128A115C260A128A11F6007608F8
:100C6800FB007B148312031308157B08F600760833
:100C7800F30000300A128A1144260A128A11080069
:100C8800F500831203138811750820380A128A1197
:100C9800E1260A128A11F4007408FB0073080A128C
:100CA8008A11E1260A128A11831203138815080093
:100CB800F40083120313881174080A128A11E126BA
:100CC8000A128A11FF300A128A11E1260A128A11C1
:100CD800F3007308FB008312031388157B080800D0
:100CE80083120313881160300A128A11E1260A124E
:100CF8008A11FF300A128A11E1260A128A11F300BA
:100D08007308FB008312031388157B080800F6009C
:100D18000A128A11A1260A128A11F4000310740C0F
:100D28000739F5007508FB007B08F4007608840095
:100D38007408831380007B09080083120313881149
:100D4800FF300A128A11E1260A128A11F300730889
:100D5800FB008312031388157B080800F7007F3017
:100D6800F6007608F7057708F6007608F3000530F0
:100D78000A128A1144260A128A110800F300831203
:100D8800031320082105F2002108730572060319D0
:100D9800CE2ED02E0130D12E00300800F200F30103
:100DA800D92E0314F30D0310F20C0230720203184B
:100DB800DE2EDF2ED52E73080800F200720883128B
:100DC800031393008C1DE92EEA2EE62E8C111308CE
:100DD8000800831203130E08F2000F08F300F40151
:100DE800F501080064008001840A04060319003430
:100DF8000406F72EF80078080A128A11B2260A1299
:100E08008A11080071088A00700E8300FE0E7E0E9B
:040E180009000800C5
:00000001FF
